{
  "abi": [
    {
      "inputs": [],
      "name": "AllowedEqualToMax",
      "type": "error"
    },
    {
      "inputs": [],
      "name": "ApproveFromTheZeroAddress",
      "type": "error"
    },
    {
      "inputs": [],
      "name": "ApproveToTheZeroAddress",
      "type": "error"
    },
    {
      "inputs": [],
      "name": "BurnFromTheZeroAddress",
      "type": "error"
    },
    {
      "inputs": [],
      "name": "DeadlineBelowBlockTimestamp",
      "type": "error"
    },
    {
      "inputs": [],
      "name": "IntNotLessThan248",
      "type": "error"
    },
    {
      "inputs": [],
      "name": "InvalidSignerRecoveredAddress",
      "type": "error"
    },
    {
      "inputs": [],
      "name": "MintToTheZeroAddress",
      "type": "error"
    },
    {
      "inputs": [],
      "name": "TransferAmountExceedsBalance",
      "type": "error"
    },
    {
      "inputs": [],
      "name": "TransferFromTheZeroAddress",
      "type": "error"
    },
    {
      "inputs": [],
      "name": "TransferToTheZeroAddress",
      "type": "error"
    },
    {
      "anonymous": false,
      "inputs": [
        {
          "indexed": true,
          "internalType": "address",
          "name": "owner",
          "type": "address"
        },
        {
          "indexed": true,
          "internalType": "address",
          "name": "spender",
          "type": "address"
        },
        {
          "indexed": false,
          "internalType": "uint256",
          "name": "amount",
          "type": "uint256"
        }
      ],
      "name": "Approval",
      "type": "event"
    },
    {
      "anonymous": false,
      "inputs": [
        {
          "indexed": true,
          "internalType": "address",
          "name": "from",
          "type": "address"
        },
        {
          "indexed": true,
          "internalType": "address",
          "name": "to",
          "type": "address"
        },
        {
          "indexed": false,
          "internalType": "uint256",
          "name": "amount",
          "type": "uint256"
        }
      ],
      "name": "Transfer",
      "type": "event"
    },
    {
      "inputs": [],
      "name": "DOMAIN_SEPARATOR",
      "outputs": [
        {
          "internalType": "bytes32",
          "name": "",
          "type": "bytes32"
        }
      ],
      "stateMutability": "view",
      "type": "function"
    },
    {
      "inputs": [
        {
          "internalType": "address",
          "name": "",
          "type": "address"
        },
        {
          "internalType": "address",
          "name": "",
          "type": "address"
        }
      ],
      "name": "allowance",
      "outputs": [
        {
          "internalType": "uint256",
          "name": "",
          "type": "uint256"
        }
      ],
      "stateMutability": "view",
      "type": "function"
    },
    {
      "inputs": [
        {
          "internalType": "address",
          "name": "spender",
          "type": "address"
        },
        {
          "internalType": "uint256",
          "name": "amount",
          "type": "uint256"
        }
      ],
      "name": "approve",
      "outputs": [
        {
          "internalType": "bool",
          "name": "",
          "type": "bool"
        }
      ],
      "stateMutability": "nonpayable",
      "type": "function"
    },
    {
      "inputs": [
        {
          "internalType": "address",
          "name": "",
          "type": "address"
        }
      ],
      "name": "balanceOf",
      "outputs": [
        {
          "internalType": "uint256",
          "name": "",
          "type": "uint256"
        }
      ],
      "stateMutability": "view",
      "type": "function"
    },
    {
      "inputs": [],
      "name": "decimals",
      "outputs": [
        {
          "internalType": "uint8",
          "name": "",
          "type": "uint8"
        }
      ],
      "stateMutability": "pure",
      "type": "function"
    },
    {
      "inputs": [],
      "name": "name",
      "outputs": [
        {
          "internalType": "string",
          "name": "",
          "type": "string"
        }
      ],
      "stateMutability": "pure",
      "type": "function"
    },
    {
      "inputs": [
        {
          "internalType": "address",
          "name": "",
          "type": "address"
        }
      ],
      "name": "nonces",
      "outputs": [
        {
          "internalType": "uint256",
          "name": "",
          "type": "uint256"
        }
      ],
      "stateMutability": "view",
      "type": "function"
    },
    {
      "inputs": [
        {
          "internalType": "address",
          "name": "owner",
          "type": "address"
        },
        {
          "internalType": "address",
          "name": "spender",
          "type": "address"
        },
        {
          "internalType": "uint256",
          "name": "value",
          "type": "uint256"
        },
        {
          "internalType": "uint256",
          "name": "deadline",
          "type": "uint256"
        },
        {
          "internalType": "uint8",
          "name": "v",
          "type": "uint8"
        },
        {
          "internalType": "bytes32",
          "name": "r",
          "type": "bytes32"
        },
        {
          "internalType": "bytes32",
          "name": "s",
          "type": "bytes32"
        }
      ],
      "name": "permit",
      "outputs": [],
      "stateMutability": "nonpayable",
      "type": "function"
    },
    {
      "inputs": [
        {
          "internalType": "uint256",
          "name": "x",
          "type": "uint256"
        }
      ],
      "name": "random",
      "outputs": [
        {
          "internalType": "uint248",
          "name": "y",
          "type": "uint248"
        }
      ],
      "stateMutability": "nonpayable",
      "type": "function"
    },
    {
      "inputs": [],
      "name": "symbol",
      "outputs": [
        {
          "internalType": "string",
          "name": "",
          "type": "string"
        }
      ],
      "stateMutability": "pure",
      "type": "function"
    },
    {
      "inputs": [],
      "name": "totalSupply",
      "outputs": [
        {
          "internalType": "uint256",
          "name": "",
          "type": "uint256"
        }
      ],
      "stateMutability": "view",
      "type": "function"
    },
    {
      "inputs": [
        {
          "internalType": "address",
          "name": "to",
          "type": "address"
        },
        {
          "internalType": "uint256",
          "name": "amount",
          "type": "uint256"
        }
      ],
      "name": "transfer",
      "outputs": [
        {
          "internalType": "bool",
          "name": "",
          "type": "bool"
        }
      ],
      "stateMutability": "nonpayable",
      "type": "function"
    },
    {
      "inputs": [
        {
          "internalType": "address",
          "name": "from",
          "type": "address"
        },
        {
          "internalType": "address",
          "name": "to",
          "type": "address"
        },
        {
          "internalType": "uint256",
          "name": "amount",
          "type": "uint256"
        }
      ],
      "name": "transferFrom",
      "outputs": [
        {
          "internalType": "bool",
          "name": "",
          "type": "bool"
        }
      ],
      "stateMutability": "nonpayable",
      "type": "function"
    }
  ],
  "bytecode": {
    "object": "0x60c060405234801561001057600080fd5b504660805261001d610025565b60a0526100f8565b60007f8b73c3c69bb8fe3d512ecc4cf759cc79239f7b179b0ffacaa9a75d522b39400f610051826100d8565b60405160200161006391815260200190565b60408051601f198184030181528282528051602091820120908301939093528101919091527fc89efdaa54c0f20c7adf612882df0950f5a951637e0307cdcb4c672f298b8bc660608201524660808201523060a082015260c00160405160208183030381529060405280519060200120905090565b6000806100ed3660011981013560f01c900390565b929092013592915050565b60805160a051610b8161011d60003960006104d5015260006104a50152610b816000f3fe608060405234801561001057600080fd5b50600436106100df5760003560e01c806370a082311161008c578063a9059cbb11610066578063a9059cbb146101c4578063b863bd37146101d7578063d505accf1461021a578063dd62ed3e1461022f57600080fd5b806370a082311461017c5780637ecebe001461019c57806395d89b41146101bc57600080fd5b806323b872dd116100bd57806323b872dd1461013c578063313ce5671461014f5780633644e5151461017457600080fd5b806306fdde03146100e4578063095ea7b31461010257806318160ddd14610125575b600080fd5b6100ec61025a565b6040516100f99190610960565b60405180910390f35b6101156101103660046109ca565b610290565b60405190151581526020016100f9565b61012e60005481565b6040519081526020016100f9565b61011561014a3660046109f4565b61036f565b3660011981013560f01c90036040013560f81c60405160ff90911681526020016100f9565b61012e6104a1565b61012e61018a366004610a30565b60016020526000908152604090205481565b61012e6101aa366004610a30565b60036020526000908152604090205481565b6100ec6104f7565b6101156101d23660046109ca565b61050e565b6101ea6101e5366004610a52565b610646565b6040517effffffffffffffffffffffffffffffffffffffffffffffffffffffffffffff90911681526020016100f9565b61022d610228366004610a6b565b6106a5565b005b61012e61023d366004610ade565b600260209081526000928352604080842090915290825290205481565b60603660011981013560f01c9003355b60405160200161027c91815260200190565b604051602081830303815290604052905090565b6000336102c9576040517fadfb5cca00000000000000000000000000000000000000000000000000000000815260040160405180910390fd5b6001600160a01b038316610309576040517fb2fa1ef300000000000000000000000000000000000000000000000000000000815260040160405180910390fd5b3360008181526002602090815260408083206001600160a01b03881680855290835292819020869055518581529192917f8c5be1e5ebec7d5bd14f71427d1e84f3dd0314c0f7b2291e5b200ac8c7c3b92591015b60405180910390a35060015b92915050565b6001600160a01b038316600090815260026020908152604080832033845290915281205460001981106103ce576040517f88889d4900000000000000000000000000000000000000000000000000000000815260040160405180910390fd5b6000198114610406576103e18382610b11565b6001600160a01b03861660009081526002602090815260408083203384529091529020555b6001600160a01b0385166000908152600160205260408120805485929061042e908490610b11565b90915550506001600160a01b03808516600081815260016020526040908190208054870190555190918716907fddf252ad1be2c89b69c2b068fc378daa952ba7f163c4a11628f55a4df523b3ef906104899087815260200190565b60405180910390a3506001949350505050565b905090565b60007f000000000000000000000000000000000000000000000000000000000000000046146104d25761049c6108a9565b507f000000000000000000000000000000000000000000000000000000000000000090565b60603660011981013560f01c90036020013561026a565b600033610547576040517f2405317000000000000000000000000000000000000000000000000000000000815260040160405180910390fd5b6001600160a01b038316610587576040517fce3a35ba00000000000000000000000000000000000000000000000000000000815260040160405180910390fd5b33600090815260016020526040812080548492906105a6908490610b11565b9091555050336000908152600160205260409020548211156105f4576040517f5dd58b8b00000000000000000000000000000000000000000000000000000000815260040160405180910390fd5b6001600160a01b038316600081815260016020526040908190208054850190555133907fddf252ad1be2c89b69c2b068fc378daa952ba7f163c4a11628f55a4df523b3ef9061035d9086815260200190565b60007f010000000000000000000000000000000000000000000000000000000000000082106106a1576040517fa789879300000000000000000000000000000000000000000000000000000000815260040160405180910390fd5b5090565b428410156106df576040517f8bfef79900000000000000000000000000000000000000000000000000000000815260040160405180910390fd5b600060016106eb6104a1565b6001600160a01b038a811660008181526003602090815260409182902080546001810190915582517f6e71edae12b1b97f4d1f60370fef10105fa2faae0126114a169c64845d6126c98184015280840194909452938d166060840152608083018c905260a083019390935260c08083018b90528151808403909101815260e0830190915280519201919091207f19010000000000000000000000000000000000000000000000000000000000006101008301526101028201929092526101228101919091526101420160408051601f198184030181528282528051602091820120600084529083018083525260ff871690820152606081018590526080810184905260a0016020604051602081039080840390855afa158015610812573d6000803e3d6000fd5b505060408051601f1901516001600160a01b03808216600081815260026020908152858220938e168252929092529290208990559250159050806108685750876001600160a01b0316816001600160a01b031614155b1561089f576040517f6ef6ce1e00000000000000000000000000000000000000000000000000000000815260040160405180910390fd5b5050505050505050565b60007f8b73c3c69bb8fe3d512ecc4cf759cc79239f7b179b0ffacaa9a75d522b39400f3660011981013560f01c9003356040516020016108eb91815260200190565b60408051601f198184030181528282528051602091820120908301939093528101919091527fc89efdaa54c0f20c7adf612882df0950f5a951637e0307cdcb4c672f298b8bc660608201524660808201523060a082015260c00160405160208183030381529060405280519060200120905090565b600060208083528351808285015260005b8181101561098d57858101830151858201604001528201610971565b506000604082860101526040601f19601f8301168501019250505092915050565b80356001600160a01b03811681146109c557600080fd5b919050565b600080604083850312156109dd57600080fd5b6109e6836109ae565b946020939093013593505050565b600080600060608486031215610a0957600080fd5b610a12846109ae565b9250610a20602085016109ae565b9150604084013590509250925092565b600060208284031215610a4257600080fd5b610a4b826109ae565b9392505050565b600060208284031215610a6457600080fd5b5035919050565b600080600080600080600060e0888a031215610a8657600080fd5b610a8f886109ae565b9650610a9d602089016109ae565b95506040880135945060608801359350608088013560ff81168114610ac157600080fd5b9699959850939692959460a0840135945060c09093013592915050565b60008060408385031215610af157600080fd5b610afa836109ae565b9150610b08602084016109ae565b90509250929050565b81810381811115610369577f4e487b7100000000000000000000000000000000000000000000000000000000600052601160045260246000fdfea2646970667358221220aa9795fd13b1c9414fcd3c4fef358ab5754528c669e527fcf741cbb82d87501864736f6c63430008100033",
    "linkReferences": {}
  },
  "methodIdentifiers": {
    "DOMAIN_SEPARATOR()": "3644e515",
    "allowance(address,address)": "dd62ed3e",
    "approve(address,uint256)": "095ea7b3",
    "balanceOf(address)": "70a08231",
    "decimals()": "313ce567",
    "name()": "06fdde03",
    "nonces(address)": "7ecebe00",
    "permit(address,address,uint256,uint256,uint8,bytes32,bytes32)": "d505accf",
    "random(uint256)": "b863bd37",
    "symbol()": "95d89b41",
    "totalSupply()": "18160ddd",
    "transfer(address,uint256)": "a9059cbb",
    "transferFrom(address,address,uint256)": "23b872dd"
  },
  "id": 9
}